{
  "contractName": "ERC721",
  "abi": [
    {
      "anonymous": false,
      "inputs": [
        {
          "indexed": true,
          "internalType": "address",
          "name": "_owner",
          "type": "address"
        },
        {
          "indexed": true,
          "internalType": "address",
          "name": "_approved",
          "type": "address"
        },
        {
          "indexed": true,
          "internalType": "uint256",
          "name": "_tokenId",
          "type": "uint256"
        }
      ],
      "name": "Approval",
      "type": "event"
    },
    {
      "anonymous": false,
      "inputs": [
        {
          "indexed": true,
          "internalType": "address",
          "name": "_from",
          "type": "address"
        },
        {
          "indexed": true,
          "internalType": "address",
          "name": "_to",
          "type": "address"
        },
        {
          "indexed": true,
          "internalType": "uint256",
          "name": "_tokenId",
          "type": "uint256"
        }
      ],
      "name": "Transfer",
      "type": "event"
    },
    {
      "inputs": [
        {
          "internalType": "bytes4",
          "name": "interfaceID",
          "type": "bytes4"
        }
      ],
      "name": "supportInterface",
      "outputs": [
        {
          "internalType": "bool",
          "name": "",
          "type": "bool"
        }
      ],
      "stateMutability": "view",
      "type": "function"
    },
    {
      "inputs": [
        {
          "internalType": "address",
          "name": "_owner",
          "type": "address"
        }
      ],
      "name": "balanceOf",
      "outputs": [
        {
          "internalType": "uint256",
          "name": "",
          "type": "uint256"
        }
      ],
      "stateMutability": "view",
      "type": "function"
    },
    {
      "inputs": [
        {
          "internalType": "uint256",
          "name": "_tokenId",
          "type": "uint256"
        }
      ],
      "name": "ownerOf",
      "outputs": [
        {
          "internalType": "address",
          "name": "",
          "type": "address"
        }
      ],
      "stateMutability": "view",
      "type": "function"
    },
    {
      "inputs": [
        {
          "internalType": "address",
          "name": "_from",
          "type": "address"
        },
        {
          "internalType": "address",
          "name": "_to",
          "type": "address"
        },
        {
          "internalType": "uint256",
          "name": "_tokenID",
          "type": "uint256"
        }
      ],
      "name": "transferFrom",
      "outputs": [],
      "stateMutability": "nonpayable",
      "type": "function"
    }
  ],
  "bytecode": "0x608060405234801561001057600080fd5b506100407f75e79be6cc7b0fa1c9ef93c49173e275135de3af55610b234fd35ad9f20df38161004560201b60201c565b610196565b63ffffffff60e01b817bffffffffffffffffffffffffffffffffffffffffffffffffffffffff1916036100ad576040517f08c379a00000000000000000000000000000000000000000000000000000000081526004016100a490610176565b60405180910390fd5b6001600080837bffffffffffffffffffffffffffffffffffffffffffffffffffffffff19167bffffffffffffffffffffffffffffffffffffffffffffffffffffffff1916815260200190815260200160002060006101000a81548160ff02191690831515021790555050565b600082825260208201905092915050565b7f20496e76616c696420496e746572666163652072657175657374200000000000600082015250565b6000610160601b83610119565b915061016b8261012a565b602082019050919050565b6000602082019050818103600083015261018f81610153565b9050919050565b610ec1806101a56000396000f3fe608060405234801561001057600080fd5b506004361061004c5760003560e01c806323b872dd146100515780636352211e1461006d57806370a082311461009d57806375e79be6146100cd575b600080fd5b61006b6004803603810190610066919061092d565b6100fd565b005b61008760048036038101906100829190610980565b61012a565b60405161009491906109bc565b60405180910390f35b6100b760048036038101906100b291906109d7565b6101a5565b6040516100c49190610a13565b60405180910390f35b6100e760048036038101906100e29190610a86565b61025c565b6040516100f49190610ace565b60405180910390f35b61010733826102c3565b61011057600080fd5b61011a828261037d565b610125838383610543565b505050565b6000806001600084815260200190815260200160002060009054906101000a900473ffffffffffffffffffffffffffffffffffffffff169050600073ffffffffffffffffffffffffffffffffffffffff168173ffffffffffffffffffffffffffffffffffffffff160361019c57600080fd5b80915050919050565b60008073ffffffffffffffffffffffffffffffffffffffff168273ffffffffffffffffffffffffffffffffffffffff1603610215576040517f08c379a000000000000000000000000000000000000000000000000000000000815260040161020c90610b46565b60405180910390fd5b600260008373ffffffffffffffffffffffffffffffffffffffff1673ffffffffffffffffffffffffffffffffffffffff168152602001908152602001600020549050919050565b6000806000837bffffffffffffffffffffffffffffffffffffffffffffffffffffffff19167bffffffffffffffffffffffffffffffffffffffffffffffffffffffff1916815260200190815260200160002060009054906101000a900460ff169050919050565b60006102ce82610822565b61030d576040517f08c379a000000000000000000000000000000000000000000000000000000000815260040161030490610bb2565b60405180910390fd5b60006001600084815260200190815260200160002060009054906101000a900473ffffffffffffffffffffffffffffffffffffffff1690508073ffffffffffffffffffffffffffffffffffffffff168473ffffffffffffffffffffffffffffffffffffffff161491505092915050565b60006001600083815260200190815260200160002060009054906101000a900473ffffffffffffffffffffffffffffffffffffffff1690508073ffffffffffffffffffffffffffffffffffffffff168373ffffffffffffffffffffffffffffffffffffffff1603610423576040517f08c379a000000000000000000000000000000000000000000000000000000000815260040161041a90610c44565b60405180910390fd5b8073ffffffffffffffffffffffffffffffffffffffff163373ffffffffffffffffffffffffffffffffffffffff1614610491576040517f08c379a000000000000000000000000000000000000000000000000000000000815260040161048890610cd6565b60405180910390fd5b826003600084815260200190815260200160002060006101000a81548173ffffffffffffffffffffffffffffffffffffffff021916908373ffffffffffffffffffffffffffffffffffffffff160217905550818373ffffffffffffffffffffffffffffffffffffffff168273ffffffffffffffffffffffffffffffffffffffff167f8c5be1e5ebec7d5bd14f71427d1e84f3dd0314c0f7b2291e5b200ac8c7c3b92560405160405180910390a4505050565b600073ffffffffffffffffffffffffffffffffffffffff168373ffffffffffffffffffffffffffffffffffffffff16036105b2576040517f08c379a00000000000000000000000000000000000000000000000000000000081526004016105a990610d42565b60405180910390fd5b600073ffffffffffffffffffffffffffffffffffffffff168273ffffffffffffffffffffffffffffffffffffffff1603610621576040517f08c379a000000000000000000000000000000000000000000000000000000000815260040161061890610d42565b60405180910390fd5b8273ffffffffffffffffffffffffffffffffffffffff166001600083815260200190815260200160002060009054906101000a900473ffffffffffffffffffffffffffffffffffffffff1673ffffffffffffffffffffffffffffffffffffffff16146106c2576040517f08c379a00000000000000000000000000000000000000000000000000000000081526004016106b990610dd4565b60405180910390fd5b816001600083815260200190815260200160002060006101000a81548173ffffffffffffffffffffffffffffffffffffffff021916908373ffffffffffffffffffffffffffffffffffffffff1602179055506001600260008573ffffffffffffffffffffffffffffffffffffffff1673ffffffffffffffffffffffffffffffffffffffff16815260200190815260200160002060008282546107649190610e23565b925050819055506001600260008473ffffffffffffffffffffffffffffffffffffffff1673ffffffffffffffffffffffffffffffffffffffff16815260200190815260200160002060008282546107bb9190610e57565b92505081905550808273ffffffffffffffffffffffffffffffffffffffff168473ffffffffffffffffffffffffffffffffffffffff167fddf252ad1be2c89b69c2b068fc378daa952ba7f163c4a11628f55a4df523b3ef60405160405180910390a4505050565b6000806001600084815260200190815260200160002060009054906101000a900473ffffffffffffffffffffffffffffffffffffffff169050600073ffffffffffffffffffffffffffffffffffffffff168173ffffffffffffffffffffffffffffffffffffffff161415915050919050565b600080fd5b600073ffffffffffffffffffffffffffffffffffffffff82169050919050565b60006108c482610899565b9050919050565b6108d4816108b9565b81146108df57600080fd5b50565b6000813590506108f1816108cb565b92915050565b6000819050919050565b61090a816108f7565b811461091557600080fd5b50565b60008135905061092781610901565b92915050565b60008060006060848603121561094657610945610894565b5b6000610954868287016108e2565b9350506020610965868287016108e2565b925050604061097686828701610918565b9150509250925092565b60006020828403121561099657610995610894565b5b60006109a484828501610918565b91505092915050565b6109b6816108b9565b82525050565b60006020820190506109d160008301846109ad565b92915050565b6000602082840312156109ed576109ec610894565b5b60006109fb848285016108e2565b91505092915050565b610a0d816108f7565b82525050565b6000602082019050610a286000830184610a04565b92915050565b60007fffffffff0000000000000000000000000000000000000000000000000000000082169050919050565b610a6381610a2e565b8114610a6e57600080fd5b50565b600081359050610a8081610a5a565b92915050565b600060208284031215610a9c57610a9b610894565b5b6000610aaa84828501610a71565b91505092915050565b60008115159050919050565b610ac881610ab3565b82525050565b6000602082019050610ae36000830184610abf565b92915050565b600082825260208201905092915050565b7f4f776e657220666f72206e6f6e2d6578697374656e7420746f6b656e00000000600082015250565b6000610b30601c83610ae9565b9150610b3b82610afa565b602082019050919050565b60006020820190508181036000830152610b5f81610b23565b9050919050565b7f546f6b656e20646f6573206e6f74206578697374000000000000000000000000600082015250565b6000610b9c601483610ae9565b9150610ba782610b66565b602082019050919050565b60006020820190508181036000830152610bcb81610b8f565b9050919050565b7f4572726f72202d20417070726f76616c20746f2063757272656e74206f776e6560008201527f7200000000000000000000000000000000000000000000000000000000000000602082015250565b6000610c2e602183610ae9565b9150610c3982610bd2565b604082019050919050565b60006020820190508181036000830152610c5d81610c21565b9050919050565b7f43757272656e742043616c6c6572206973206e6f7420746865206f776e65722060008201527f6f6620746865204e465400000000000000000000000000000000000000000000602082015250565b6000610cc0602a83610ae9565b9150610ccb82610c64565b604082019050919050565b60006020820190508181036000830152610cef81610cb3565b9050919050565b7f476976656e2041646472657373206973206661756c7479000000000000000000600082015250565b6000610d2c601783610ae9565b9150610d3782610cf6565b602082019050919050565b60006020820190508181036000830152610d5b81610d1f565b9050919050565b7f5468697320546f6b656e20446f6573206e6f742062656c6f6e6720746f20746860008201527f652073656e646572730000000000000000000000000000000000000000000000602082015250565b6000610dbe602983610ae9565b9150610dc982610d62565b604082019050919050565b60006020820190508181036000830152610ded81610db1565b9050919050565b7f4e487b7100000000000000000000000000000000000000000000000000000000600052601160045260246000fd5b6000610e2e826108f7565b9150610e39836108f7565b9250828203905081811115610e5157610e50610df4565b5b92915050565b6000610e62826108f7565b9150610e6d836108f7565b9250828201905080821115610e8557610e84610df4565b5b9291505056fea26469706673582212201ef8623f9f70adc3c6bde26d6f94f8ca4b424d805bb80e6726ab1cdfce4aa6f464736f6c63430008100033",
  "immutableReferences": {},
  "source": "// SPDX-License-Identifier: MIT\r\npragma solidity ^0.8.0;\r\n\r\nimport './ERC165.sol';\r\nimport './interfaces/IERC721.sol';\r\n\r\ncontract ERC721 is ERC165, IERC721{\r\n\r\n    mapping (uint256 => address) private _tokenOwner;\r\n    mapping (address => uint256 ) private _OwnedTokensCount;\r\n    mapping (uint256 => address) private _tokenApprovals;\r\n\r\n    function balanceOf(address _owner) public override view returns(uint256){\r\n        require(_owner != address(0), 'Owner for non-existent token');\r\n        return _OwnedTokensCount[_owner];\r\n    }\r\n\r\n    function ownerOf(uint256 _tokenId) external override view returns(address){\r\n        address owner = _tokenOwner[_tokenId];\r\n        require(owner != address(0));\r\n        return owner;\r\n    }\r\n\r\n    function _exists(uint256 tokenID) internal view returns(bool){\r\n        address owner = _tokenOwner[tokenID];\r\n        //return bool\r\n        return owner != address(0);\r\n    }\r\n\r\n    function _mint(address _to, uint256 _tokenID) internal virtual {\r\n        // requires that the address isnt zero\r\n        require(_to != address(0), 'ERC721 : minting to zero address');\r\n        // require that the token does not already exist\r\n        require(!_exists(_tokenID), 'ERC721 : Token already minted');\r\n        // we are adding a new address with a token id for minting\r\n        _tokenOwner[_tokenID] = _to;\r\n        // keeping track of each address that os minting and adding one to the address\r\n        _OwnedTokensCount[_to] += 1;\r\n\r\n        emit Transfer(address(0), _to, _tokenID);\r\n    }\r\n\r\n    function _transferFrom(address _from, address _to, uint256 _tokenID)internal{\r\n        require(_from != address(0), 'Given Address is faulty');\r\n        require(_to != address(0),'Given Address is faulty');\r\n        require(_tokenOwner[_tokenID] == _from ,'This Token Does not belong to the senders');\r\n\r\n        _tokenOwner[_tokenID] = _to;\r\n        _OwnedTokensCount[_from] -= 1;\r\n        _OwnedTokensCount[_to] += 1;\r\n\r\n        emit Transfer(_from, _to, _tokenID);\r\n    }\r\n\r\n    function transferFrom(address _from, address _to, uint256 _tokenID) public override {\r\n        require(isApprovedOwner(msg.sender, _tokenID));\r\n        approve(_to, _tokenID);\r\n        _transferFrom(_from, _to, _tokenID);\r\n    }\r\n\r\n    function approve(address _to, uint256 _tokenId)internal{\r\n        address owner =  _tokenOwner[_tokenId];\r\n        require(_to != owner, 'Error - Approval to current owner');\r\n        require(msg.sender == owner, 'Current Caller is not the owner of the NFT');\r\n        _tokenApprovals[_tokenId] = _to;\r\n\r\n        emit Approval(owner, _to, _tokenId);\r\n    }\r\n\r\n    function isApprovedOwner(address spender, uint256 tokenId)internal view returns(bool){\r\n        require(_exists(tokenId), 'Token does not exist');\r\n        address owner = _tokenOwner[tokenId];\r\n        return(spender == owner);\r\n    }\r\n}",
  "sourcePath": "C:\\NODE JS\\nftMarketplace\\nft-marketplace\\src\\contracts\\ERC721.sol",
  "compiler": {
    "name": "solc",
    "version": "0.8.16+commit.07a7930e.Emscripten.clang"
  },
  "schemaVersion": "3.4.8",
  "updatedAt": "2022-08-10T09:04:22.187Z",
  "devdoc": {
    "kind": "dev",
    "methods": {},
    "version": 1
  },
  "userdoc": {
    "kind": "user",
    "methods": {},
    "version": 1
  }
}