{
  "contractName": "ERC721Enumerable",
  "abi": [
    {
      "anonymous": false,
      "inputs": [
        {
          "indexed": true,
          "internalType": "address",
          "name": "_owner",
          "type": "address"
        },
        {
          "indexed": true,
          "internalType": "address",
          "name": "_approved",
          "type": "address"
        },
        {
          "indexed": true,
          "internalType": "uint256",
          "name": "_tokenId",
          "type": "uint256"
        }
      ],
      "name": "Approval",
      "type": "event"
    },
    {
      "anonymous": false,
      "inputs": [
        {
          "indexed": true,
          "internalType": "address",
          "name": "_from",
          "type": "address"
        },
        {
          "indexed": true,
          "internalType": "address",
          "name": "_to",
          "type": "address"
        },
        {
          "indexed": true,
          "internalType": "uint256",
          "name": "_tokenId",
          "type": "uint256"
        }
      ],
      "name": "Transfer",
      "type": "event"
    },
    {
      "inputs": [
        {
          "internalType": "address",
          "name": "_owner",
          "type": "address"
        }
      ],
      "name": "balanceOf",
      "outputs": [
        {
          "internalType": "uint256",
          "name": "",
          "type": "uint256"
        }
      ],
      "stateMutability": "view",
      "type": "function"
    },
    {
      "inputs": [
        {
          "internalType": "uint256",
          "name": "_tokenId",
          "type": "uint256"
        }
      ],
      "name": "ownerOf",
      "outputs": [
        {
          "internalType": "address",
          "name": "",
          "type": "address"
        }
      ],
      "stateMutability": "view",
      "type": "function"
    },
    {
      "inputs": [
        {
          "internalType": "bytes4",
          "name": "interfaceID",
          "type": "bytes4"
        }
      ],
      "name": "supportInterface",
      "outputs": [
        {
          "internalType": "bool",
          "name": "",
          "type": "bool"
        }
      ],
      "stateMutability": "view",
      "type": "function"
    },
    {
      "inputs": [
        {
          "internalType": "address",
          "name": "_from",
          "type": "address"
        },
        {
          "internalType": "address",
          "name": "_to",
          "type": "address"
        },
        {
          "internalType": "uint256",
          "name": "_tokenID",
          "type": "uint256"
        }
      ],
      "name": "transferFrom",
      "outputs": [],
      "stateMutability": "nonpayable",
      "type": "function"
    },
    {
      "inputs": [],
      "name": "totalSupply",
      "outputs": [
        {
          "internalType": "uint256",
          "name": "",
          "type": "uint256"
        }
      ],
      "stateMutability": "view",
      "type": "function"
    },
    {
      "inputs": [
        {
          "internalType": "uint256",
          "name": "index",
          "type": "uint256"
        }
      ],
      "name": "tokenByIndex",
      "outputs": [
        {
          "internalType": "uint256",
          "name": "",
          "type": "uint256"
        }
      ],
      "stateMutability": "view",
      "type": "function"
    },
    {
      "inputs": [
        {
          "internalType": "address",
          "name": "owner",
          "type": "address"
        },
        {
          "internalType": "uint256",
          "name": "index",
          "type": "uint256"
        }
      ],
      "name": "tokenOfOwnerByIndex",
      "outputs": [
        {
          "internalType": "uint256",
          "name": "",
          "type": "uint256"
        }
      ],
      "stateMutability": "view",
      "type": "function"
    }
  ],
  "bytecode": "0x608060405234801561001057600080fd5b506100407f75e79be6cc7b0fa1c9ef93c49173e275135de3af55610b234fd35ad9f20df38161004560201b60201c565b610196565b63ffffffff60e01b817bffffffffffffffffffffffffffffffffffffffffffffffffffffffff1916036100ad576040517f08c379a00000000000000000000000000000000000000000000000000000000081526004016100a490610176565b60405180910390fd5b6001600080837bffffffffffffffffffffffffffffffffffffffffffffffffffffffff19167bffffffffffffffffffffffffffffffffffffffffffffffffffffffff1916815260200190815260200160002060006101000a81548160ff02191690831515021790555050565b600082825260208201905092915050565b7f20496e76616c696420496e746572666163652072657175657374200000000000600082015250565b6000610160601b83610119565b915061016b8261012a565b602082019050919050565b6000602082019050818103600083015261018f81610153565b9050919050565b6111e580620001a66000396000f3fe608060405234801561001057600080fd5b506004361061007d5760003560e01c80634f6ccce71161005b5780634f6ccce7146100ec5780636352211e1461011c57806370a082311461014c57806375e79be61461017c5761007d565b806318160ddd1461008257806323b872dd146100a05780632f745c59146100bc575b600080fd5b61008a6101ac565b6040516100979190610a8a565b60405180910390f35b6100ba60048036038101906100b59190610b34565b6101b9565b005b6100d660048036038101906100d19190610b87565b6101e6565b6040516100e39190610a8a565b60405180910390f35b61010660048036038101906101019190610bc7565b610296565b6040516101139190610a8a565b60405180910390f35b61013660048036038101906101319190610bc7565b610307565b6040516101439190610c03565b60405180910390f35b61016660048036038101906101619190610c1e565b610382565b6040516101739190610a8a565b60405180910390f35b61019660048036038101906101919190610ca3565b610439565b6040516101a39190610ceb565b60405180910390f35b6000600480549050905090565b6101c333826104a0565b6101cc57600080fd5b6101d6828261055a565b6101e1838383610720565b505050565b60006101f183610382565b8210610232576040517f08c379a000000000000000000000000000000000000000000000000000000000815260040161022990610d63565b60405180910390fd5b600660008473ffffffffffffffffffffffffffffffffffffffff1673ffffffffffffffffffffffffffffffffffffffff168152602001908152602001600020828154811061028357610282610d83565b5b9060005260206000200154905092915050565b60006102a06101ac565b82106102e1576040517f08c379a00000000000000000000000000000000000000000000000000000000081526004016102d890610dfe565b60405180910390fd5b600482815481106102f5576102f4610d83565b5b90600052602060002001549050919050565b6000806001600084815260200190815260200160002060009054906101000a900473ffffffffffffffffffffffffffffffffffffffff169050600073ffffffffffffffffffffffffffffffffffffffff168173ffffffffffffffffffffffffffffffffffffffff160361037957600080fd5b80915050919050565b60008073ffffffffffffffffffffffffffffffffffffffff168273ffffffffffffffffffffffffffffffffffffffff16036103f2576040517f08c379a00000000000000000000000000000000000000000000000000000000081526004016103e990610e6a565b60405180910390fd5b600260008373ffffffffffffffffffffffffffffffffffffffff1673ffffffffffffffffffffffffffffffffffffffff168152602001908152602001600020549050919050565b6000806000837bffffffffffffffffffffffffffffffffffffffffffffffffffffffff19167bffffffffffffffffffffffffffffffffffffffffffffffffffffffff1916815260200190815260200160002060009054906101000a900460ff169050919050565b60006104ab826109ff565b6104ea576040517f08c379a00000000000000000000000000000000000000000000000000000000081526004016104e190610ed6565b60405180910390fd5b60006001600084815260200190815260200160002060009054906101000a900473ffffffffffffffffffffffffffffffffffffffff1690508073ffffffffffffffffffffffffffffffffffffffff168473ffffffffffffffffffffffffffffffffffffffff161491505092915050565b60006001600083815260200190815260200160002060009054906101000a900473ffffffffffffffffffffffffffffffffffffffff1690508073ffffffffffffffffffffffffffffffffffffffff168373ffffffffffffffffffffffffffffffffffffffff1603610600576040517f08c379a00000000000000000000000000000000000000000000000000000000081526004016105f790610f68565b60405180910390fd5b8073ffffffffffffffffffffffffffffffffffffffff163373ffffffffffffffffffffffffffffffffffffffff161461066e576040517f08c379a000000000000000000000000000000000000000000000000000000000815260040161066590610ffa565b60405180910390fd5b826003600084815260200190815260200160002060006101000a81548173ffffffffffffffffffffffffffffffffffffffff021916908373ffffffffffffffffffffffffffffffffffffffff160217905550818373ffffffffffffffffffffffffffffffffffffffff168273ffffffffffffffffffffffffffffffffffffffff167f8c5be1e5ebec7d5bd14f71427d1e84f3dd0314c0f7b2291e5b200ac8c7c3b92560405160405180910390a4505050565b600073ffffffffffffffffffffffffffffffffffffffff168373ffffffffffffffffffffffffffffffffffffffff160361078f576040517f08c379a000000000000000000000000000000000000000000000000000000000815260040161078690611066565b60405180910390fd5b600073ffffffffffffffffffffffffffffffffffffffff168273ffffffffffffffffffffffffffffffffffffffff16036107fe576040517f08c379a00000000000000000000000000000000000000000000000000000000081526004016107f590611066565b60405180910390fd5b8273ffffffffffffffffffffffffffffffffffffffff166001600083815260200190815260200160002060009054906101000a900473ffffffffffffffffffffffffffffffffffffffff1673ffffffffffffffffffffffffffffffffffffffff161461089f576040517f08c379a0000000000000000000000000000000000000000000000000000000008152600401610896906110f8565b60405180910390fd5b816001600083815260200190815260200160002060006101000a81548173ffffffffffffffffffffffffffffffffffffffff021916908373ffffffffffffffffffffffffffffffffffffffff1602179055506001600260008573ffffffffffffffffffffffffffffffffffffffff1673ffffffffffffffffffffffffffffffffffffffff16815260200190815260200160002060008282546109419190611147565b925050819055506001600260008473ffffffffffffffffffffffffffffffffffffffff1673ffffffffffffffffffffffffffffffffffffffff1681526020019081526020016000206000828254610998919061117b565b92505081905550808273ffffffffffffffffffffffffffffffffffffffff168473ffffffffffffffffffffffffffffffffffffffff167fddf252ad1be2c89b69c2b068fc378daa952ba7f163c4a11628f55a4df523b3ef60405160405180910390a4505050565b6000806001600084815260200190815260200160002060009054906101000a900473ffffffffffffffffffffffffffffffffffffffff169050600073ffffffffffffffffffffffffffffffffffffffff168173ffffffffffffffffffffffffffffffffffffffff161415915050919050565b6000819050919050565b610a8481610a71565b82525050565b6000602082019050610a9f6000830184610a7b565b92915050565b600080fd5b600073ffffffffffffffffffffffffffffffffffffffff82169050919050565b6000610ad582610aaa565b9050919050565b610ae581610aca565b8114610af057600080fd5b50565b600081359050610b0281610adc565b92915050565b610b1181610a71565b8114610b1c57600080fd5b50565b600081359050610b2e81610b08565b92915050565b600080600060608486031215610b4d57610b4c610aa5565b5b6000610b5b86828701610af3565b9350506020610b6c86828701610af3565b9250506040610b7d86828701610b1f565b9150509250925092565b60008060408385031215610b9e57610b9d610aa5565b5b6000610bac85828601610af3565b9250506020610bbd85828601610b1f565b9150509250929050565b600060208284031215610bdd57610bdc610aa5565b5b6000610beb84828501610b1f565b91505092915050565b610bfd81610aca565b82525050565b6000602082019050610c186000830184610bf4565b92915050565b600060208284031215610c3457610c33610aa5565b5b6000610c4284828501610af3565b91505092915050565b60007fffffffff0000000000000000000000000000000000000000000000000000000082169050919050565b610c8081610c4b565b8114610c8b57600080fd5b50565b600081359050610c9d81610c77565b92915050565b600060208284031215610cb957610cb8610aa5565b5b6000610cc784828501610c8e565b91505092915050565b60008115159050919050565b610ce581610cd0565b82525050565b6000602082019050610d006000830184610cdc565b92915050565b600082825260208201905092915050565b7f6f776e657220696e646578206973206f7574206f6620626f756e642100000000600082015250565b6000610d4d601c83610d06565b9150610d5882610d17565b602082019050919050565b60006020820190508181036000830152610d7c81610d40565b9050919050565b7f4e487b7100000000000000000000000000000000000000000000000000000000600052603260045260246000fd5b7f676c6f62616c20696e646578206973206f7574206f6620626f756e6421000000600082015250565b6000610de8601d83610d06565b9150610df382610db2565b602082019050919050565b60006020820190508181036000830152610e1781610ddb565b9050919050565b7f4f776e657220666f72206e6f6e2d6578697374656e7420746f6b656e00000000600082015250565b6000610e54601c83610d06565b9150610e5f82610e1e565b602082019050919050565b60006020820190508181036000830152610e8381610e47565b9050919050565b7f546f6b656e20646f6573206e6f74206578697374000000000000000000000000600082015250565b6000610ec0601483610d06565b9150610ecb82610e8a565b602082019050919050565b60006020820190508181036000830152610eef81610eb3565b9050919050565b7f4572726f72202d20417070726f76616c20746f2063757272656e74206f776e6560008201527f7200000000000000000000000000000000000000000000000000000000000000602082015250565b6000610f52602183610d06565b9150610f5d82610ef6565b604082019050919050565b60006020820190508181036000830152610f8181610f45565b9050919050565b7f43757272656e742043616c6c6572206973206e6f7420746865206f776e65722060008201527f6f6620746865204e465400000000000000000000000000000000000000000000602082015250565b6000610fe4602a83610d06565b9150610fef82610f88565b604082019050919050565b6000602082019050818103600083015261101381610fd7565b9050919050565b7f476976656e2041646472657373206973206661756c7479000000000000000000600082015250565b6000611050601783610d06565b915061105b8261101a565b602082019050919050565b6000602082019050818103600083015261107f81611043565b9050919050565b7f5468697320546f6b656e20446f6573206e6f742062656c6f6e6720746f20746860008201527f652073656e646572730000000000000000000000000000000000000000000000602082015250565b60006110e2602983610d06565b91506110ed82611086565b604082019050919050565b60006020820190508181036000830152611111816110d5565b9050919050565b7f4e487b7100000000000000000000000000000000000000000000000000000000600052601160045260246000fd5b600061115282610a71565b915061115d83610a71565b925082820390508181111561117557611174611118565b5b92915050565b600061118682610a71565b915061119183610a71565b92508282019050808211156111a9576111a8611118565b5b9291505056fea264697066735822122092d4cd9db4e9a04a8c55d33fb01972ac72a97cab3f716d623192c3eeae2ecbca64736f6c63430008100033",
  "immutableReferences": {},
  "source": "// SPDX-License-Identifier: MIT\r\npragma solidity ^0.8.0;\r\n\r\nimport './ERC721.sol';\r\n\r\ncontract ERC721Enumerable is ERC721{\r\n    uint256[] private _allTokens;\r\n\r\n    mapping(uint256 => uint256) private  _allTokensIndex;\r\n    mapping(address => uint256[]) private _ownedTokens;\r\n    mapping(uint256 => uint256) private _ownedTokensIndex;\r\n\r\n    //return the total supply of tht _allToken array\r\n    function totalSupply() public view returns(uint256){\r\n        return _allTokens.length;\r\n    }\r\n\r\n    function _mint(address _to, uint256 _tokenID)internal override(ERC721){\r\n        super._mint(_to , _tokenID);\r\n\r\n        _addTokensToAllTokensEnumeration(_tokenID);\r\n        _addTokensToOwnerEnumeration(_to, _tokenID);\r\n\r\n    }\r\n\r\n    //add tokens to _allTokens array and set the position of the mapp as the token id\r\n    //and the value as the length of array before adding the new token\r\n    function _addTokensToAllTokensEnumeration(uint256 tokenId) private{\r\n        _allTokensIndex[tokenId] = _allTokens.length;\r\n        _allTokens.push(tokenId);\r\n    }\r\n\r\n    function _addTokensToOwnerEnumeration(address to, uint256 tokenId)private{\r\n        //add address and token id to the _ownedTokens\r\n        //ownedTokenIndex Token IDs set to address of ownedTokens position\r\n        //execute the function with minting\r\n        _ownedTokensIndex[tokenId] = _ownedTokens[to].length;\r\n        _ownedTokens[to].push(tokenId);\r\n    }\r\n\r\n    function tokenByIndex(uint256 index) public view returns(uint256){\r\n        require(index < totalSupply(), 'global index is out of bound!');\r\n        return _allTokens[index];\r\n    }\r\n\r\n    function tokenOfOwnerByIndex(address owner, uint index)public view returns(uint256){\r\n        require(index < balanceOf(owner),'owner index is out of bound!');\r\n        return _ownedTokens[owner][index];\r\n    }\r\n}",
  "sourcePath": "C:\\NODE JS\\nftMarketplace\\nft-marketplace\\src\\contracts\\ERC721Enumerable.sol",
  "compiler": {
    "name": "solc",
    "version": "0.8.16+commit.07a7930e.Emscripten.clang"
  },
  "schemaVersion": "3.4.8",
  "updatedAt": "2022-08-10T09:04:22.203Z",
  "devdoc": {
    "kind": "dev",
    "methods": {},
    "version": 1
  },
  "userdoc": {
    "kind": "user",
    "methods": {},
    "version": 1
  }
}