{
  "contractName": "KryptoBird",
  "abi": [
    {
      "inputs": [],
      "stateMutability": "nonpayable",
      "type": "constructor"
    },
    {
      "anonymous": false,
      "inputs": [
        {
          "indexed": true,
          "internalType": "address",
          "name": "_owner",
          "type": "address"
        },
        {
          "indexed": true,
          "internalType": "address",
          "name": "_approved",
          "type": "address"
        },
        {
          "indexed": true,
          "internalType": "uint256",
          "name": "_tokenId",
          "type": "uint256"
        }
      ],
      "name": "Approval",
      "type": "event"
    },
    {
      "anonymous": false,
      "inputs": [
        {
          "indexed": true,
          "internalType": "address",
          "name": "_from",
          "type": "address"
        },
        {
          "indexed": true,
          "internalType": "address",
          "name": "_to",
          "type": "address"
        },
        {
          "indexed": true,
          "internalType": "uint256",
          "name": "_tokenId",
          "type": "uint256"
        }
      ],
      "name": "Transfer",
      "type": "event"
    },
    {
      "inputs": [
        {
          "internalType": "address",
          "name": "_owner",
          "type": "address"
        }
      ],
      "name": "balanceOf",
      "outputs": [
        {
          "internalType": "uint256",
          "name": "",
          "type": "uint256"
        }
      ],
      "stateMutability": "view",
      "type": "function",
      "constant": true
    },
    {
      "inputs": [
        {
          "internalType": "uint256",
          "name": "",
          "type": "uint256"
        }
      ],
      "name": "kryptoBirdz",
      "outputs": [
        {
          "internalType": "string",
          "name": "",
          "type": "string"
        }
      ],
      "stateMutability": "view",
      "type": "function",
      "constant": true
    },
    {
      "inputs": [],
      "name": "name",
      "outputs": [
        {
          "internalType": "string",
          "name": "",
          "type": "string"
        }
      ],
      "stateMutability": "view",
      "type": "function",
      "constant": true
    },
    {
      "inputs": [
        {
          "internalType": "uint256",
          "name": "_tokenId",
          "type": "uint256"
        }
      ],
      "name": "ownerOf",
      "outputs": [
        {
          "internalType": "address",
          "name": "",
          "type": "address"
        }
      ],
      "stateMutability": "view",
      "type": "function",
      "constant": true
    },
    {
      "inputs": [
        {
          "internalType": "bytes4",
          "name": "interfaceID",
          "type": "bytes4"
        }
      ],
      "name": "supportInterface",
      "outputs": [
        {
          "internalType": "bool",
          "name": "",
          "type": "bool"
        }
      ],
      "stateMutability": "view",
      "type": "function",
      "constant": true
    },
    {
      "inputs": [],
      "name": "symbol",
      "outputs": [
        {
          "internalType": "string",
          "name": "",
          "type": "string"
        }
      ],
      "stateMutability": "view",
      "type": "function",
      "constant": true
    },
    {
      "inputs": [
        {
          "internalType": "uint256",
          "name": "index",
          "type": "uint256"
        }
      ],
      "name": "tokenByIndex",
      "outputs": [
        {
          "internalType": "uint256",
          "name": "",
          "type": "uint256"
        }
      ],
      "stateMutability": "view",
      "type": "function",
      "constant": true
    },
    {
      "inputs": [
        {
          "internalType": "address",
          "name": "owner",
          "type": "address"
        },
        {
          "internalType": "uint256",
          "name": "index",
          "type": "uint256"
        }
      ],
      "name": "tokenOfOwnerByIndex",
      "outputs": [
        {
          "internalType": "uint256",
          "name": "",
          "type": "uint256"
        }
      ],
      "stateMutability": "view",
      "type": "function",
      "constant": true
    },
    {
      "inputs": [],
      "name": "totalSupply",
      "outputs": [
        {
          "internalType": "uint256",
          "name": "",
          "type": "uint256"
        }
      ],
      "stateMutability": "view",
      "type": "function",
      "constant": true
    },
    {
      "inputs": [
        {
          "internalType": "address",
          "name": "_from",
          "type": "address"
        },
        {
          "internalType": "address",
          "name": "_to",
          "type": "address"
        },
        {
          "internalType": "uint256",
          "name": "_tokenID",
          "type": "uint256"
        }
      ],
      "name": "transferFrom",
      "outputs": [],
      "stateMutability": "nonpayable",
      "type": "function"
    },
    {
      "inputs": [
        {
          "internalType": "string",
          "name": "_kryptoBird",
          "type": "string"
        }
      ],
      "name": "mint",
      "outputs": [],
      "stateMutability": "nonpayable",
      "type": "function"
    }
  ],
  "bytecode": "0x60806040523480156200001157600080fd5b506040518060400160405280600a81526020017f4b727970746f42697264000000000000000000000000000000000000000000008152506040518060400160405280600681526020017f4b424952445a00000000000000000000000000000000000000000000000000008152508181816000908162000091919062000431565b508060019081620000a3919062000431565b505050620000d77f75e79be6cc7b0fa1c9ef93c49173e275135de3af55610b234fd35ad9f20df381620000df60201b60201c565b50506200059b565b63ffffffff60e01b817bffffffffffffffffffffffffffffffffffffffffffffffffffffffff1916036200014a576040517f08c379a0000000000000000000000000000000000000000000000000000000008152600401620001419062000579565b60405180910390fd5b600160026000837bffffffffffffffffffffffffffffffffffffffffffffffffffffffff19167bffffffffffffffffffffffffffffffffffffffffffffffffffffffff1916815260200190815260200160002060006101000a81548160ff02191690831515021790555050565b600081519050919050565b7f4e487b7100000000000000000000000000000000000000000000000000000000600052604160045260246000fd5b7f4e487b7100000000000000000000000000000000000000000000000000000000600052602260045260246000fd5b600060028204905060018216806200023957607f821691505b6020821081036200024f576200024e620001f1565b5b50919050565b60008190508160005260206000209050919050565b60006020601f8301049050919050565b600082821b905092915050565b600060088302620002b97fffffffffffffffffffffffffffffffffffffffffffffffffffffffffffffffff826200027a565b620002c586836200027a565b95508019841693508086168417925050509392505050565b6000819050919050565b6000819050919050565b6000620003126200030c6200030684620002dd565b620002e7565b620002dd565b9050919050565b6000819050919050565b6200032e83620002f1565b620003466200033d8262000319565b84845462000287565b825550505050565b600090565b6200035d6200034e565b6200036a81848462000323565b505050565b5b8181101562000392576200038660008262000353565b60018101905062000370565b5050565b601f821115620003e157620003ab8162000255565b620003b6846200026a565b81016020851015620003c6578190505b620003de620003d5856200026a565b8301826200036f565b50505b505050565b600082821c905092915050565b60006200040660001984600802620003e6565b1980831691505092915050565b6000620004218383620003f3565b9150826002028217905092915050565b6200043c82620001b7565b67ffffffffffffffff811115620004585762000457620001c2565b5b62000464825462000220565b6200047182828562000396565b600060209050601f831160018114620004a9576000841562000494578287015190505b620004a0858262000413565b86555062000510565b601f198416620004b98662000255565b60005b82811015620004e357848901518255600182019150602085019450602081019050620004bc565b86831015620005035784890151620004ff601f891682620003f3565b8355505b6001600288020188555050505b505050505050565b600082825260208201905092915050565b7f20496e76616c696420496e746572666163652072657175657374200000000000600082015250565b600062000561601b8362000518565b91506200056e8262000529565b602082019050919050565b60006020820190508181036000830152620005948162000552565b9050919050565b611ef880620005ab6000396000f3fe608060405234801561001057600080fd5b50600436106100a95760003560e01c80636352211e116100715780636352211e1461016657806370a082311461019657806375e79be6146101c657806393ab6e56146101f657806395d89b4114610226578063d85d3d2714610244576100a9565b806306fdde03146100ae57806318160ddd146100cc57806323b872dd146100ea5780632f745c59146101065780634f6ccce714610136575b600080fd5b6100b6610260565b6040516100c39190611171565b60405180910390f35b6100d46102f2565b6040516100e191906111ac565b60405180910390f35b61010460048036038101906100ff9190611265565b6102ff565b005b610120600480360381019061011b91906112b8565b61032c565b60405161012d91906111ac565b60405180910390f35b610150600480360381019061014b91906112f8565b6103dc565b60405161015d91906111ac565b60405180910390f35b610180600480360381019061017b91906112f8565b61044d565b60405161018d9190611334565b60405180910390f35b6101b060048036038101906101ab919061134f565b6104c8565b6040516101bd91906111ac565b60405180910390f35b6101e060048036038101906101db91906113d4565b61057f565b6040516101ed919061141c565b60405180910390f35b610210600480360381019061020b91906112f8565b6105e7565b60405161021d9190611171565b60405180910390f35b61022e610693565b60405161023b9190611171565b60405180910390f35b61025e6004803603810190610259919061156c565b610725565b005b60606000805461026f906115e4565b80601f016020809104026020016040519081016040528092919081815260200182805461029b906115e4565b80156102e85780601f106102bd576101008083540402835291602001916102e8565b820191906000526020600020905b8154815290600101906020018083116102cb57829003601f168201915b5050505050905090565b6000600680549050905090565b6103093382610821565b61031257600080fd5b61031c82826108db565b610327838383610aa1565b505050565b6000610337836104c8565b8210610378576040517f08c379a000000000000000000000000000000000000000000000000000000000815260040161036f90611661565b60405180910390fd5b600860008473ffffffffffffffffffffffffffffffffffffffff1673ffffffffffffffffffffffffffffffffffffffff16815260200190815260200160002082815481106103c9576103c8611681565b5b9060005260206000200154905092915050565b60006103e66102f2565b8210610427576040517f08c379a000000000000000000000000000000000000000000000000000000000815260040161041e906116fc565b60405180910390fd5b6006828154811061043b5761043a611681565b5b90600052602060002001549050919050565b6000806003600084815260200190815260200160002060009054906101000a900473ffffffffffffffffffffffffffffffffffffffff169050600073ffffffffffffffffffffffffffffffffffffffff168173ffffffffffffffffffffffffffffffffffffffff16036104bf57600080fd5b80915050919050565b60008073ffffffffffffffffffffffffffffffffffffffff168273ffffffffffffffffffffffffffffffffffffffff1603610538576040517f08c379a000000000000000000000000000000000000000000000000000000000815260040161052f90611768565b60405180910390fd5b600460008373ffffffffffffffffffffffffffffffffffffffff1673ffffffffffffffffffffffffffffffffffffffff168152602001908152602001600020549050919050565b600060026000837bffffffffffffffffffffffffffffffffffffffffffffffffffffffff19167bffffffffffffffffffffffffffffffffffffffffffffffffffffffff1916815260200190815260200160002060009054906101000a900460ff169050919050565b600a81815481106105f757600080fd5b906000526020600020016000915090508054610612906115e4565b80601f016020809104026020016040519081016040528092919081815260200182805461063e906115e4565b801561068b5780601f106106605761010080835404028352916020019161068b565b820191906000526020600020905b81548152906001019060200180831161066e57829003601f168201915b505050505081565b6060600180546106a2906115e4565b80601f01602080910402602001604051908101604052809291908181526020018280546106ce906115e4565b801561071b5780601f106106f05761010080835404028352916020019161071b565b820191906000526020600020905b8154815290600101906020018083116106fe57829003601f168201915b5050505050905090565b600b8160405161073591906117c4565b908152602001604051809103902060009054906101000a900460ff1615610791576040517f08c379a000000000000000000000000000000000000000000000000000000000815260040161078890611827565b60405180910390fd5b600a819080600181540180825580915050600190039060005260206000200160009091909190915090816107c591906119f3565b5060006001600a805490506107da9190611af4565b90506107e63382610d80565b6001600b836040516107f891906117c4565b908152602001604051809103902060006101000a81548160ff0219169083151502179055505050565b600061082c82610da1565b61086b576040517f08c379a000000000000000000000000000000000000000000000000000000000815260040161086290611b74565b60405180910390fd5b60006003600084815260200190815260200160002060009054906101000a900473ffffffffffffffffffffffffffffffffffffffff1690508073ffffffffffffffffffffffffffffffffffffffff168473ffffffffffffffffffffffffffffffffffffffff161491505092915050565b60006003600083815260200190815260200160002060009054906101000a900473ffffffffffffffffffffffffffffffffffffffff1690508073ffffffffffffffffffffffffffffffffffffffff168373ffffffffffffffffffffffffffffffffffffffff1603610981576040517f08c379a000000000000000000000000000000000000000000000000000000000815260040161097890611c06565b60405180910390fd5b8073ffffffffffffffffffffffffffffffffffffffff163373ffffffffffffffffffffffffffffffffffffffff16146109ef576040517f08c379a00000000000000000000000000000000000000000000000000000000081526004016109e690611c98565b60405180910390fd5b826005600084815260200190815260200160002060006101000a81548173ffffffffffffffffffffffffffffffffffffffff021916908373ffffffffffffffffffffffffffffffffffffffff160217905550818373ffffffffffffffffffffffffffffffffffffffff168273ffffffffffffffffffffffffffffffffffffffff167f8c5be1e5ebec7d5bd14f71427d1e84f3dd0314c0f7b2291e5b200ac8c7c3b92560405160405180910390a4505050565b600073ffffffffffffffffffffffffffffffffffffffff168373ffffffffffffffffffffffffffffffffffffffff1603610b10576040517f08c379a0000000000000000000000000000000000000000000000000000000008152600401610b0790611d04565b60405180910390fd5b600073ffffffffffffffffffffffffffffffffffffffff168273ffffffffffffffffffffffffffffffffffffffff1603610b7f576040517f08c379a0000000000000000000000000000000000000000000000000000000008152600401610b7690611d04565b60405180910390fd5b8273ffffffffffffffffffffffffffffffffffffffff166003600083815260200190815260200160002060009054906101000a900473ffffffffffffffffffffffffffffffffffffffff1673ffffffffffffffffffffffffffffffffffffffff1614610c20576040517f08c379a0000000000000000000000000000000000000000000000000000000008152600401610c1790611d96565b60405180910390fd5b816003600083815260200190815260200160002060006101000a81548173ffffffffffffffffffffffffffffffffffffffff021916908373ffffffffffffffffffffffffffffffffffffffff1602179055506001600460008573ffffffffffffffffffffffffffffffffffffffff1673ffffffffffffffffffffffffffffffffffffffff1681526020019081526020016000206000828254610cc29190611af4565b925050819055506001600460008473ffffffffffffffffffffffffffffffffffffffff1673ffffffffffffffffffffffffffffffffffffffff1681526020019081526020016000206000828254610d199190611db6565b92505081905550808273ffffffffffffffffffffffffffffffffffffffff168473ffffffffffffffffffffffffffffffffffffffff167fddf252ad1be2c89b69c2b068fc378daa952ba7f163c4a11628f55a4df523b3ef60405160405180910390a4505050565b610d8a8282610e13565b610d9381610fd4565b610d9d828261101d565b5050565b6000806003600084815260200190815260200160002060009054906101000a900473ffffffffffffffffffffffffffffffffffffffff169050600073ffffffffffffffffffffffffffffffffffffffff168173ffffffffffffffffffffffffffffffffffffffff161415915050919050565b600073ffffffffffffffffffffffffffffffffffffffff168273ffffffffffffffffffffffffffffffffffffffff1603610e82576040517f08c379a0000000000000000000000000000000000000000000000000000000008152600401610e7990611e36565b60405180910390fd5b610e8b81610da1565b15610ecb576040517f08c379a0000000000000000000000000000000000000000000000000000000008152600401610ec290611ea2565b60405180910390fd5b816003600083815260200190815260200160002060006101000a81548173ffffffffffffffffffffffffffffffffffffffff021916908373ffffffffffffffffffffffffffffffffffffffff1602179055506001600460008473ffffffffffffffffffffffffffffffffffffffff1673ffffffffffffffffffffffffffffffffffffffff1681526020019081526020016000206000828254610f6d9190611db6565b92505081905550808273ffffffffffffffffffffffffffffffffffffffff16600073ffffffffffffffffffffffffffffffffffffffff167fddf252ad1be2c89b69c2b068fc378daa952ba7f163c4a11628f55a4df523b3ef60405160405180910390a45050565b6006805490506007600083815260200190815260200160002081905550600681908060018154018082558091505060019003906000526020600020016000909190919091505550565b600860008373ffffffffffffffffffffffffffffffffffffffff1673ffffffffffffffffffffffffffffffffffffffff168152602001908152602001600020805490506009600083815260200190815260200160002081905550600860008373ffffffffffffffffffffffffffffffffffffffff1673ffffffffffffffffffffffffffffffffffffffff1681526020019081526020016000208190806001815401808255809150506001900390600052602060002001600090919091909150555050565b600081519050919050565b600082825260208201905092915050565b60005b8381101561111b578082015181840152602081019050611100565b60008484015250505050565b6000601f19601f8301169050919050565b6000611143826110e1565b61114d81856110ec565b935061115d8185602086016110fd565b61116681611127565b840191505092915050565b6000602082019050818103600083015261118b8184611138565b905092915050565b6000819050919050565b6111a681611193565b82525050565b60006020820190506111c1600083018461119d565b92915050565b6000604051905090565b600080fd5b600080fd5b600073ffffffffffffffffffffffffffffffffffffffff82169050919050565b6000611206826111db565b9050919050565b611216816111fb565b811461122157600080fd5b50565b6000813590506112338161120d565b92915050565b61124281611193565b811461124d57600080fd5b50565b60008135905061125f81611239565b92915050565b60008060006060848603121561127e5761127d6111d1565b5b600061128c86828701611224565b935050602061129d86828701611224565b92505060406112ae86828701611250565b9150509250925092565b600080604083850312156112cf576112ce6111d1565b5b60006112dd85828601611224565b92505060206112ee85828601611250565b9150509250929050565b60006020828403121561130e5761130d6111d1565b5b600061131c84828501611250565b91505092915050565b61132e816111fb565b82525050565b60006020820190506113496000830184611325565b92915050565b600060208284031215611365576113646111d1565b5b600061137384828501611224565b91505092915050565b60007fffffffff0000000000000000000000000000000000000000000000000000000082169050919050565b6113b18161137c565b81146113bc57600080fd5b50565b6000813590506113ce816113a8565b92915050565b6000602082840312156113ea576113e96111d1565b5b60006113f8848285016113bf565b91505092915050565b60008115159050919050565b61141681611401565b82525050565b6000602082019050611431600083018461140d565b92915050565b600080fd5b600080fd5b7f4e487b7100000000000000000000000000000000000000000000000000000000600052604160045260246000fd5b61147982611127565b810181811067ffffffffffffffff8211171561149857611497611441565b5b80604052505050565b60006114ab6111c7565b90506114b78282611470565b919050565b600067ffffffffffffffff8211156114d7576114d6611441565b5b6114e082611127565b9050602081019050919050565b82818337600083830152505050565b600061150f61150a846114bc565b6114a1565b90508281526020810184848401111561152b5761152a61143c565b5b6115368482856114ed565b509392505050565b600082601f83011261155357611552611437565b5b81356115638482602086016114fc565b91505092915050565b600060208284031215611582576115816111d1565b5b600082013567ffffffffffffffff8111156115a05761159f6111d6565b5b6115ac8482850161153e565b91505092915050565b7f4e487b7100000000000000000000000000000000000000000000000000000000600052602260045260246000fd5b600060028204905060018216806115fc57607f821691505b60208210810361160f5761160e6115b5565b5b50919050565b7f6f776e657220696e646578206973206f7574206f6620626f756e642100000000600082015250565b600061164b601c836110ec565b915061165682611615565b602082019050919050565b6000602082019050818103600083015261167a8161163e565b9050919050565b7f4e487b7100000000000000000000000000000000000000000000000000000000600052603260045260246000fd5b7f676c6f62616c20696e646578206973206f7574206f6620626f756e6421000000600082015250565b60006116e6601d836110ec565b91506116f1826116b0565b602082019050919050565b60006020820190508181036000830152611715816116d9565b9050919050565b7f4f776e657220666f72206e6f6e2d6578697374656e7420746f6b656e00000000600082015250565b6000611752601c836110ec565b915061175d8261171c565b602082019050919050565b6000602082019050818103600083015261178181611745565b9050919050565b600081905092915050565b600061179e826110e1565b6117a88185611788565b93506117b88185602086016110fd565b80840191505092915050565b60006117d08284611793565b915081905092915050565b7f455243373231203a20546f6b656e20616c726561647920657869737473000000600082015250565b6000611811601d836110ec565b915061181c826117db565b602082019050919050565b6000602082019050818103600083015261184081611804565b9050919050565b60008190508160005260206000209050919050565b60006020601f8301049050919050565b600082821b905092915050565b6000600883026118a97fffffffffffffffffffffffffffffffffffffffffffffffffffffffffffffffff8261186c565b6118b3868361186c565b95508019841693508086168417925050509392505050565b6000819050919050565b60006118f06118eb6118e684611193565b6118cb565b611193565b9050919050565b6000819050919050565b61190a836118d5565b61191e611916826118f7565b848454611879565b825550505050565b600090565b611933611926565b61193e818484611901565b505050565b5b818110156119625761195760008261192b565b600181019050611944565b5050565b601f8211156119a75761197881611847565b6119818461185c565b81016020851015611990578190505b6119a461199c8561185c565b830182611943565b50505b505050565b600082821c905092915050565b60006119ca600019846008026119ac565b1980831691505092915050565b60006119e383836119b9565b9150826002028217905092915050565b6119fc826110e1565b67ffffffffffffffff811115611a1557611a14611441565b5b611a1f82546115e4565b611a2a828285611966565b600060209050601f831160018114611a5d5760008415611a4b578287015190505b611a5585826119d7565b865550611abd565b601f198416611a6b86611847565b60005b82811015611a9357848901518255600182019150602085019450602081019050611a6e565b86831015611ab05784890151611aac601f8916826119b9565b8355505b6001600288020188555050505b505050505050565b7f4e487b7100000000000000000000000000000000000000000000000000000000600052601160045260246000fd5b6000611aff82611193565b9150611b0a83611193565b9250828203905081811115611b2257611b21611ac5565b5b92915050565b7f546f6b656e20646f6573206e6f74206578697374000000000000000000000000600082015250565b6000611b5e6014836110ec565b9150611b6982611b28565b602082019050919050565b60006020820190508181036000830152611b8d81611b51565b9050919050565b7f4572726f72202d20417070726f76616c20746f2063757272656e74206f776e6560008201527f7200000000000000000000000000000000000000000000000000000000000000602082015250565b6000611bf06021836110ec565b9150611bfb82611b94565b604082019050919050565b60006020820190508181036000830152611c1f81611be3565b9050919050565b7f43757272656e742043616c6c6572206973206e6f7420746865206f776e65722060008201527f6f6620746865204e465400000000000000000000000000000000000000000000602082015250565b6000611c82602a836110ec565b9150611c8d82611c26565b604082019050919050565b60006020820190508181036000830152611cb181611c75565b9050919050565b7f476976656e2041646472657373206973206661756c7479000000000000000000600082015250565b6000611cee6017836110ec565b9150611cf982611cb8565b602082019050919050565b60006020820190508181036000830152611d1d81611ce1565b9050919050565b7f5468697320546f6b656e20446f6573206e6f742062656c6f6e6720746f20746860008201527f652073656e646572730000000000000000000000000000000000000000000000602082015250565b6000611d806029836110ec565b9150611d8b82611d24565b604082019050919050565b60006020820190508181036000830152611daf81611d73565b9050919050565b6000611dc182611193565b9150611dcc83611193565b9250828201905080821115611de457611de3611ac5565b5b92915050565b7f455243373231203a206d696e74696e6720746f207a65726f2061646472657373600082015250565b6000611e206020836110ec565b9150611e2b82611dea565b602082019050919050565b60006020820190508181036000830152611e4f81611e13565b9050919050565b7f455243373231203a20546f6b656e20616c7265616479206d696e746564000000600082015250565b6000611e8c601d836110ec565b9150611e9782611e56565b602082019050919050565b60006020820190508181036000830152611ebb81611e7f565b905091905056fea264697066735822122024095eaf132f42da1f724bd74394399ca1abafa6b0d00ca4ee05ed9655868f7a64736f6c63430008100033",
  "immutableReferences": {},
  "source": "// SPDX-License-Identifier: MIT\r\npragma solidity ^0.8.0;\r\n\r\nimport './ERC721Connector.sol';\r\n\r\n\r\ncontract KryptoBird is ERC721Connector{\r\n\r\n    // array to store out nfts \r\n    string [] public kryptoBirdz;\r\n\r\n    mapping(string => bool) _kryptoBirdzExists;\r\n\r\n    constructor() ERC721Connector('KryptoBird','KBIRDZ'){\r\n        \r\n    }\r\n\r\n    function mint(string memory _kryptoBird) public {\r\n        require(!_kryptoBirdzExists[_kryptoBird] , 'ERC721 : Token already exists');\r\n        //deprecated //uint _id = KryptoBirdz.push(_kryptoBird);\r\n\r\n        kryptoBirdz.push(_kryptoBird);\r\n        uint _id = kryptoBirdz.length-1;\r\n\r\n        _mint(msg.sender, _id);\r\n\r\n        _kryptoBirdzExists[_kryptoBird] = true ;\r\n    }\r\n}",
  "sourcePath": "C:\\NODE JS\\nftMarketplace\\nft-marketplace\\src\\contracts\\KryptoBirdz.sol",
  "compiler": {
    "name": "solc",
    "version": "0.8.16+commit.07a7930e.Emscripten.clang"
  },
  "schemaVersion": "3.4.8",
  "updatedAt": "2022-08-10T09:04:24.849Z",
  "networkType": "ethereum",
  "devdoc": {
    "kind": "dev",
    "methods": {},
    "version": 1
  },
  "userdoc": {
    "kind": "user",
    "methods": {},
    "version": 1
  }
}